:100000000C9464000C948C000C948C000C948C0068
:100010000C948C000C948C000C948C000C948C0030
:100020000C948C000C948C000C948C000C948C0020
:100030000C948C000C948C000C948C000C948C0010
:100040000C9462030C948C000C9478050C94C605F7
:100050000C948C000C948C000C948C000C948C00F0
:100060000C94A9000C948C000000000024002700D0
:100070002A0000000000250028002B0000000000DE
:1000800023002600290004040404040404040202DA
:100090000202020203030303030301020408102007
:1000A0004080010204081020010204081020000012
:1000B0000007000201000003040600000000000029
:1000C00000006A02E202320711241FBECFEFD8E01F
:1000D000DEBFCDBF11E0A0E0B1E0EAE0F2E102C096
:1000E00005900D92A032B107D9F712E0A0E2B1E07D
:1000F00001C01D92AC39B107E1F710E0C8ECD0E0C7
:1001000004C02297FE010E94FF08C23CD107C9F734
:100110000E9488070C9403090C940000482F613258
:1001200010F081E0089580912001843011F082E088
:10013000089560936B01AAE4B1E0842F9C01F9015A
:1001400002C081918D938E2F841B8617D0F380E09F
:1001500008951F920F920FB60F9211242F933F9381
:100160004F935F936F937F938F939F93AF93BF93BF
:10017000EF93FF938091B90090E0887F9070803674
:10018000910509F4F2C081369105CCF588329105CC
:1001900009F47BC089329105B4F48031910509F4EA
:1001A0006FC0813191053CF4009709F447C108976D
:1001B00009F04FC165C08831910509F466C0809788
:1001C00009F047C182C08034910509F4A4C081348C
:1001D000910544F48033910509F482C0C89709F071
:1001E00038C189C08035910509F489C088359105E9
:1001F00009F496C08834910509F02BC1AEC0883946
:10020000910509F413C189399105ECF488379105FA
:1002100009F4ABC0893791054CF48836910509F48F
:10022000A4C08037910509F014C19FC0883891059A
:1002300009F4FCC08039910509F49DC0803891050E
:1002400009F007C198C0803B910509F4C6C0813B05
:1002500091054CF4803A910509F49FC0883A9105C4
:1002600009F0F7C0BAC0803C910509F4E3C0883CAE
:10027000910509F4DFC0883B910509F0EAC0C2C0CE
:10028000809121018093BB00CFC090914801809163
:100290004901981768F490914801E92FF0E0E85D72
:1002A000FE4F80818093BB009F5F90934801BCC04C
:1002B00080912201882309F44BC085ED8093BC0016
:1002C0008091BC0084FDFCCFC2C080E280938D0190
:1002D00085ED8093BC008091BC0084FDFCCFB7C04D
:1002E00080E380938D0185ED8093BC008091BC00FC
:1002F00084FDFCCFACC088E380938D019BC08091CE
:1003000048019091BB00E82FF0E0E85DFE4F90833C
:100310008F5F80934801909148018091490182C08C
:10032000809148019091BB00E82FF0E0E85DFE4F1E
:1003300090838F5F8093480180912201882341F050
:1003400085ED8093BC008091BC0084FDFCCF7FC014
:1003500081E08093230184EA6EC085ED8093BC0028
:100360008091BC0084FDFCCF72C083E080932001AB
:1003700010928C0159C080918C01803208F056C0D7
:1003800080918C019091BB00E82FF0E0E459FE4F82
:1003900090838F5F80938C0147C080918C01803265
:1003A00030F4E0918C01F0E0E459FE4F108285EDCD
:1003B0008093BC008091BC0084FDFCCF1092200192
:1003C00060918C01E0912601F09127018CE691E08B
:1003D00070E0099510928C012DC084E0809320017B
:1003E00010926A0110926B01E0912401F0912501B5
:1003F000099580916B01882329F481E080936B013A
:1004000010924A0190916A01E92FF0E0E65BFE4FFD
:1004100080818093BB009F5F90936A0190916A01F5
:1004200080916B01981710F485EC01C085E88093EA
:10043000BC000FC085EC8093BC0009C010928D01F8
:1004400085ED8093BC008091BC0084FDFCCF1092B0
:100450002001FF91EF91BF91AF919F918F917F917B
:100460006F915F914F913F912F910F900FBE0F9021
:100470001F9018952091AF0130E08091AE01281BAC
:100480003109C90108954091AE018091AF0148172B
:1004900018F02FEF3FEF0AC0E42FF0E0E257FE4FD5
:1004A0008081282F30E04F5F4093AE01C90108954D
:1004B000E091AE018091AF01E81718F0EFEFFFEF88
:1004C00006C0F0E0E257FE4F8081E82FF0E0CF0158
:1004D000089508951092D6011092D50188EE93E008
:1004E000A0E0B0E08093D7019093D801A093D90108
:1004F000B093DA0184E091E09093D4018093D3012A
:100500000895CF92DF92EF92FF920F931F93CF93B4
:10051000DF937C016B018A018091D2018823A1F0D5
:10052000C0E0D0E00DC0D701ED91FC91D601AC0F39
:10053000BD1F0190F081E02DC7016C9109952196B6
:10054000C017D10780F304C0CB01642F0E948E0036
:10055000C801DF91CF911F910F91FF90EF90DF9035
:10056000CF900895DF93CF930F92CDB7DEB7FC0104
:1005700069838091D2018823C9F08091D1018032B2
:1005800038F081E090E09383828320E030E015C072
:100590008091D001E82FF0E0E055FE4F99819083E3
:1005A0008F5F8093D0018093D10105C0CE01019669
:1005B00061E00E948E0021E030E0C9010F90CF91F0
:1005C000DF9108958FED91E067E070E00E940D03E8
:1005D00008950F931F938FED91E00E942003AB01CC
:1005E000BC010AE712E0C8012AE030E00E9461087D
:1005F000C8010E94C10768EE73E080E090E00E94AD
:10060000AA031F910F9108958AE792E040E855E20E
:1006100060E070E00E9401060895EF92FF920F9350
:100620001F938C01F62EE72E862F61E00E9448046E
:10063000F801F082E1821F910F91FF90EF900895F1
:100640000F931F938C01FC01808161E00E9448049C
:10065000F801808160E00E94870482E090E00E94BF
:100660000304F801808161E00E94870485E090E046
:100670000E940304F801808160E00E948704F80171
:10068000808160E00E944804F801808161E020E4FC
:1006900032E44FE050E00E94DB04F8016283738390
:1006A000848395832AE330E040E050E00E94E20832
:1006B000CA01F8012683378340879187B9011F91CA
:1006C0000F9108951F920F920FB60F9211242F933E
:1006D0003F938F939F93AF93BF938091ED01909140
:1006E000EE01A091EF01B091F0013091F10101967E
:1006F000A11DB11D232F2D5F2D3720F02D57019601
:10070000A11DB11D2093F1018093ED019093EE01A5
:10071000A093EF01B093F0018091E9019091EA017B
:10072000A091EB01B091EC010196A11DB11D809348
:10073000E9019093EA01A093EB01B093EC01BF9122
:10074000AF919F918F913F912F910F900FBE0F907E
:100750001F9018959B01AC017FB7F8948091E90137
:100760009091EA01A091EB01B091EC0166B5A89BD4
:1007700005C06F3F19F00196A11DB11D7FBFBA2FB3
:10078000A92F982F8827860F911DA11DB11D62E00A
:10079000880F991FAA1FBB1F6A95D1F7BC012DC0F6
:1007A000FFB7F8948091E9019091EA01A091EB01E3
:1007B000B091EC01E6B5A89B05C0EF3F19F001969A
:1007C000A11DB11DFFBFBA2FA92F982F88278E0F0B
:1007D000911DA11DB11DE2E0880F991FAA1FBB1F2B
:1007E000EA95D1F7861B970B885E9340C8F221509B
:1007F00030404040504068517C4F21153105410543
:10080000510571F60895019739F0880F991F880FE7
:10081000991F02970197F1F70895789484B5826043
:1008200084BD84B5816084BD85B5826085BD85B594
:10083000816085BDEEE6F0E0808181608083E1E843
:10084000F0E010828081826080838081816080837B
:10085000E0E8F0E0808181608083E1EBF0E080817E
:1008600084608083E0EBF0E0808181608083EAE750
:10087000F0E08081846080838081826080838081D9
:10088000816080838081806880831092C100089598
:10089000CF93DF93482F50E0CA0186569F4FFC014B
:1008A00034914A575F4FFA018491882369F190E0AF
:1008B000880F991FFC01E859FF4FA591B491FC01E5
:1008C000EE58FF4FC591D491662351F42FB7F89499
:1008D0008C91932F909589238C93888189230BC0C9
:1008E000623061F42FB7F8948C91932F90958923FF
:1008F0008C938881832B88832FBF06C09FB7F89481
:100900008C91832B8C939FBFDF91CF910895482FBB
:1009100050E0CA0182559F4FFC012491CA018656BE
:100920009F4FFC0194914A575F4FFA013491332352
:1009300009F440C0222351F1233071F0243028F40F
:100940002130A1F0223011F514C02630B1F027304B
:10095000C1F02430D9F404C0809180008F7703C0A7
:10096000809180008F7D8093800010C084B58F7748
:1009700002C084B58F7D84BD09C08091B0008F779F
:1009800003C08091B0008F7D8093B000E32FF0E032
:10099000EE0FFF1FEE58FF4FA591B4912FB7F894BB
:1009A000662321F48C919095892302C08C91892B28
:1009B0008C932FBF08958F929F92AF92BF92CF9248
:1009C000DF92EF92FF920F931F93CF93DF93A82FA5
:1009D000B0E0CD0186569F4FFC018490AA57BF4FCF
:1009E000FD018491662311F4992401C0982C6FEFC6
:1009F000A62E6FEFB62E6FEFC62E6FE0D62EA22278
:100A0000B322C422D522682F70E0660F771F645886
:100A10007F4FEE24FF248701FB01A591B4910BC009
:100A2000EA14FB040C051D0509F44EC00894E11CF2
:100A3000F11C011D111D8C918821891589F30CC0B1
:100A4000EA14FB040C051D0509F43EC00894E11CE2
:100A5000F11C011D111D03C0FB01A591B4918C91E6
:100A60008821891569F720E030E040E050E0FB0183
:100A7000C591D4910FC0DA01C9018E0D9F1DA01F31
:100A8000B11F8A159B05AC05BD05F1F02F5F3F4FE7
:100A90004F4F5F4F88818821891569F3CA01B901D9
:100AA00025E130E040E050E00E94A1089B01AC014C
:100AB000205F3F4F4F4F5F4F84E0569547953795E6
:100AC00027958A95D1F704C020E030E040E050E05F
:100AD000B901CA01DF91CF911F910F91FF90EF9063
:100AE000DF90CF90BF90AF909F908F900895089522
:100AF0001F920F920FB60F9211242F933F934F9393
:100B00008F939F93EF93FF938091C00082FD1DC050
:100B10004091C60020913202309133022F5F3F4F47
:100B20002F73307080913402909135022817390765
:100B300071F0E0913202F0913302EE50FE4F4083AB
:100B4000309333022093320202C08091C600FF919D
:100B5000EF919F918F914F913F912F910F900FBEE9
:100B60000F901F901895E0918602F0918702E05C4B
:100B7000FF4F8191919120813181821B930B8F7363
:100B80009070892B11F00E94770508951F920F92A3
:100B90000FB60F9211242F933F938F939F93EF9350
:100BA000FF932091760230917702809178029091A4
:100BB00079022817390731F48091C1008F7D809325
:100BC000C10014C0E0917802F0917902EA5CFD4F17
:100BD0002081809178029091790201968F739070B4
:100BE00090937902809378022093C600FF91EF9151
:100BF0009F918F913F912F910F900FBE0F901F905B
:100C00001895AF92BF92DF92EF92FF920F931F93CE
:100C1000CF93DF93EC017A018B01DD24403081EE2C
:100C2000580780E0680780E0780711F0DD24D3944E
:100C300091E0A92EB12CEC89FD89DD2069F0C50178
:100C400008A002C0880F991F0A94E2F7808360E031
:100C500079E08DE390E005C0108260E874E88EE1F1
:100C600090E0A80197010E94C00821503040404008
:100C70005040569547953795279580E120303807A5
:100C800020F0DD2011F0DD24D6CFE889F98930830A
:100C9000EA89FB89208319A2EE89FF89408121E03E
:100CA00030E0C9010C8C02C0880F991F0A94E2F74A
:100CB000482B4083EE89FF894081C9010D8C02C019
:100CC000880F991F0A94E2F7482B4083EE89FF8929
:100CD0004081C9010E8C02C0880F991F0A94E2F767
:100CE000482B4083EE89FF8980810F8C02C0220F40
:100CF000331F0A94E2F7209528232083DF91CF91B8
:100D00001F910F91FF90EF90DF90BF90AF900895EB
:100D1000DC011C96ED91FC911D97E05CFF4F219149
:100D2000319180819181281B390B2F733070C9015B
:100D30000895DC011C96ED91FC911D97E05CFF4F3E
:100D400020813181E054F040DF01AE5BBF4F8D91D7
:100D50009C9111972817390719F42FEF3FEF07C01F
:100D60008D919C91E80FF91F8081282F30E0C901F7
:100D70000895DC011C96ED91FC911D97E05CFF4FFE
:100D800020813181E054F040DF01AE5BBF4F8D9197
:100D90009C9111972817390719F42FEF3FEF10C0D6
:100DA0008D919C911197E80FF91F20818D919C9155
:100DB000119701968F73907011969C938E9330E0EB
:100DC000C9010895DC0191968C919197882339F09F
:100DD0005496ED91FC915597808186FFF9CF9196BD
:100DE0001C920895CF93DF93EC01EE85FF85E05CC4
:100DF000FF4F20813181E054F0402F5F3F4F2F7330
:100E00003070DF01AE5BBF4F8D919C911197281719
:100E10003907D1F3E05CFF4F80819181E054F040CD
:100E2000E80FF91F6083EE85FF85E05CFF4F31839B
:100E30002083EE89FF89208181E090E00F8C02C041
:100E4000880F991F0A94E2F7282B208381E089A359
:100E5000EC89FD8980818064808381E090E0DF916E
:100E6000CF91089510927D0210927C0288EE93E05B
:100E7000A0E0B0E080937E0290937F02A093800276
:100E8000B093810284E191E090937B0280937A0297
:100E900082EF91E0909387028093860286E392E04E
:100EA000909389028093880285EC90E090938B0266
:100EB00080938A0284EC90E090938D0280938C0260
:100EC00080EC90E090938F0280938E0281EC90E012
:100ED000909391028093900282EC90E09093930221
:100EE0008093920286EC90E0909395028093940216
:100EF00084E08093960283E08093970287E080935A
:100F0000980285E08093990281E080939A02089587
:100F1000CF93DF930E940D040E940403C3EBD5E03E
:100F20000E94E9022097E1F30E94B305F9CFCF9226
:100F3000DF92EF92FF920F931F93CF93DF937C0189
:100F40006B018A01C0E0D0E00FC0D6016D916D0148
:100F5000D701ED91FC910190F081E02DC701099539
:100F6000C80FD91F015010400115110571F7CE01AE
:100F7000DF91CF911F910F91FF90EF90DF90CF9075
:100F80000895EF92FF920F931F938C01DC01ED9176
:100F9000FC910190F081E02D6DE009957C01D80174
:100FA000ED91FC910190F081E02DC8016AE0099576
:100FB0009C012E0D3F1DC9011F910F91FF90EF90D5
:100FC0000895CF93DF93EC016115710519F420E0CA
:100FD00030E00FC0DB010D900020E9F71197A61B50
:100FE000B70BE881F9810280F381E02DAD0109950D
:100FF0009C01C901DF91CF9108954F925F927F923A
:101000008F929F92AF92BF92CF92DF92EF92FF9218
:101010000F931F93DF93CF93CDB7DEB7A1970FB692
:10102000F894DEBF0FBECDBF2C01742ECB01223051
:1010300008F42AE019A231E2C32ED12CCC0EDD1E19
:10104000822E9924AA24BB24672D752FA501940113
:101050000E94C00879018A01C801B701A501940165
:101060000E94A108472D461B0894C108D1084A30A8
:1010700014F4405D01C0495CF6014083E114F104C1
:101080000105110521F07E2C5F2DC801DDCFC201C5
:10109000B6010E94E107A1960FB6F894DEBF0FBE1D
:1010A000CDBFCF91DF911F910F91FF90EF90DF9017
:1010B000CF90BF90AF909F908F907F905F904F9018
:1010C0000895CF92DF92EF92FF920F931F93CF93E9
:1010D000DF93EC016A017B012115310541F4E881C0
:1010E000F9810190F081E02D642F09951FC02A300D
:1010F0003105D1F477FF17C0E881F9810190F081C3
:10110000E02D6DE209958C0144275527BA014C1951
:101110005D096E097F09CE012AE00E94FD07980152
:10112000280F391F04C02AE00E94FD079C01C90155
:10113000DF91CF911F910F91FF90EF90DF90CF90B3
:101140000895629FD001739FF001829FE00DF11D11
:10115000649FE00DF11D929FF00D839FF00D749F31
:10116000F00D659FF00D9927729FB00DE11DF91FDD
:10117000639FB00DE11DF91FBD01CF01112408953A
:10118000A1E21A2EAA1BBB1BFD010DC0AA1FBB1F8B
:10119000EE1FFF1FA217B307E407F50720F0A21BFD
:1011A000B30BE40BF50B661F771F881F991F1A946A
:1011B00069F760957095809590959B01AC01BD0194
:1011C000CF01089597FB092E05260ED057FD04D0B8
:1011D000D7DF0AD0001C38F4509540953095219502
:1011E0003F4F4F4F5F4F0895F6F79095809570955C
:1011F00061957F4F8F4F9F4F0895EE0FFF1F059012
:0A120000F491E02D0994F894FFCF5B
:10120A0000000000B20281023A0243025802690257
:10121A0000000000F20697078806B9069906E2065A
:00000001FF
