:100000000C9463000C948B000C948B000C948B006C
:100010000C948B000C948B000C948B000C948B0034
:100020000C948B000C948B000C948B000C948B0024
:100030000C948B000C948B000C948B000C948B0014
:100040000C9478060C948B000C94A9070C94F70779
:100050000C948B000C948B000C948B000C948B00F4
:100060000C9448020C948B00000000002400270030
:100070002A0000000000250028002B0000000000DE
:1000800023002600290004040404040404040202DA
:100090000202020203030303030301020408102007
:1000A0004080010204081020010204081020000012
:1000B0000007000201000003040600000000000029
:1000C00000003104630911241FBECFEFD8E0DEBF6A
:1000D000CDBF11E0A0E0B1E0E2E6F6E102C005909C
:1000E0000D92A632B107D9F712E0A6E2B1E001C045
:1000F0001D92AF39B107E1F710E0C6ECD0E004C0C3
:100100002297FE010E942B0BC23CD107C9F70E9427
:10011000B9090C942F0B0C940000CF93DF93BC0112
:100120008230910510F462E070E0A0919D02B091E0
:100130009E02ED01E0E0F0E040E050E021C0888167
:1001400099818617970769F48A819B81309719F006
:100150009383828304C090939E0280939D02FE014C
:1001600034C06817790738F44115510519F0841720
:10017000950708F4AC01FE018A819B819C01E9018D
:100180002097E9F641155105A9F1CA01861B970B85
:10019000049708F4BA01E0E0F0E02AC08D919C9148
:1001A000119784179507F9F46417750781F412966F
:1001B0008D919C911397309719F09383828304C09B
:1001C00090939E0280939D02FD0132964CC0CA011D
:1001D000861B970BFD01E80FF91F6193719302973E
:1001E0008D939C9340C0FD01828193819C01D90134
:1001F0001097A1F680919B0290919C02892B41F46B
:10020000809102019091030190939C0280939B0244
:1002100040910401509105014115510541F44DB73C
:100220005EB78091000190910101481B590B20910C
:100230009B0230919C02CA01821B930B8617970781
:1002400080F0AB014E5F5F4F8417950750F0420F6F
:10025000531F50939C0240939B02F9016193719349
:1002600002C0E0E0F0E0CF01DF91CF910895CF939D
:10027000DF93009709F450C0EC0122971B821A8289
:10028000A0919D02B0919E02109709F140E050E0CC
:10029000AC17BD0708F1BB83AA83FE012191319100
:1002A000E20FF31FAE17BF0779F48D919C91119760
:1002B000280F391F2E5F3F4F3983288312968D9167
:1002C0009C9113979B838A834115510571F4D093B8
:1002D0009E02C0939D0220C012968D919C9113970F
:1002E000AD01009711F0DC01D3CFFA01D383C283B3
:1002F00021913191E20FF31FCE17DF0769F4888156
:100300009981280F391F2E5F3F4FFA0131832083D7
:100310008A819B8193838283DF91CF910895382FC7
:10032000413210F040E042C0809126018823E1F77D
:1003300091E090932601209328018FEF8093930101
:1003400010924E01415040934F014F5F909327010F
:1003500080912701330F832B8093270180912901FE
:10036000813041F410922901809127018093BB00D4
:1003700085EC01C085EE8093BC0080912601813020
:10038000E1F380914E01841710F440914E0120E07A
:1003900030E00AC0FB01E20FF31FD901A25DBE4F9E
:1003A0008C9180832F5F3F4F2417A0F3842F0895F3
:1003B0000F931F93582F122F413210F081E04AC043
:1003C000809126018823E1F782E080932601009343
:1003D00028018FEF8093930110924E0140934F01BB
:1003E000AEE2B1E0FB0102C081918D938E2F861B9E
:1003F0008417D0F31092270180912701550F852B88
:100400008093270180912901813041F410922901C4
:10041000809127018093BB0085EC01C085EE80931D
:10042000BC00112321F0809126018230E1F38091FC
:1004300093018F3F11F480E00DC0809193018032D1
:1004400011F482E007C080919301803311F084E0C1
:1004500001C083E01F910F910895482F613210F081
:1004600081E0089580912601843011F082E00895A2
:1004700060937101A0E5B1E0842F9C01F90102C0F5
:1004800081918D938E2F841B8617D0F380E0089581
:100490001F920F920FB60F9211242F933F934F93F9
:1004A0005F936F937F938F939F93AF93BF93EF93DC
:1004B000FF938091B90090E0887F9070803691051D
:1004C00009F4F2C081369105CCF58832910509F422
:1004D0007BC089329105B4F48031910509F46FC075
:1004E000813191053CF4009709F447C1089709F060
:1004F0004FC165C08831910509F466C0809709F045
:1005000047C182C08034910509F4A4C081349105AB
:1005100044F48033910509F482C0C89709F038C1CA
:1005200089C08035910509F489C08835910509F4A1
:1005300096C08834910509F02BC1AEC08839910569
:1005400009F413C189399105ECF48837910509F450
:10055000ABC0893791054CF48836910509F4A4C0E5
:100560008037910509F014C19FC08838910509F4BE
:10057000FCC08039910509F49DC08038910509F0CF
:1005800007C198C0803B910509F4C6C0813B910525
:100590004CF4803A910509F49FC0883A910509F01E
:1005A000F7C0BAC0803C910509F4E3C0883C9105CE
:1005B00009F4DFC0883B910509F0EAC0C2C0809110
:1005C00027018093BB00CFC090914E0180914F01D5
:1005D000981768F490914E01E92FF0E0E25DFE4F2C
:1005E00080818093BB009F5F90934E01BCC080913F
:1005F0002801882309F44BC085ED8093BC008091CD
:10060000BC0084FDFCCFC2C080E28093930185EDE5
:100610008093BC008091BC0084FDFCCFB7C080E318
:100620008093930185ED8093BC008091BC0084FD94
:10063000FCCFACC088E3809393019BC080914E01B6
:100640009091BB00E82FF0E0E25DFE4F90838F5F5A
:1006500080934E0190914E0180914F0182C0809114
:100660004E019091BB00E82FF0E0E25DFE4F9083D9
:100670008F5F80934E0180912801882341F085EDA2
:100680008093BC008091BC0084FDFCCF7FC081E0E2
:100690008093290184EA6EC085ED8093BC0080912F
:1006A000BC0084FDFCCF72C083E0809326011092D1
:1006B000920159C080919201803208F056C0809119
:1006C00092019091BB00E82FF0E0EE58FE4F90832E
:1006D0008F5F8093920147C080919201803230F405
:1006E000E0919201F0E0EE58FE4F108285ED80938C
:1006F000BC008091BC0084FDFCCF1092260160916B
:100700009201E0912C01F0912D0182E791E070E0DF
:100710000995109292012DC084E0809326011092D9
:10072000700110927101E0912A01F0912B0109955D
:1007300080917101882329F481E0809371011092E6
:10074000500190917001E92FF0E0E05BFE4F808155
:100750008093BB009F5F9093700190917001809196
:100760007101981710F485EC01C085E88093BC00F6
:100770000FC085EC8093BC0009C01092930185EDF9
:100780008093BC008091BC0084FDFCCF10922601B8
:10079000FF91EF91BF91AF919F918F917F916F9159
:1007A0005F914F913F912F910F900FBE0F901F902F
:1007B00018951092260181E080932801109229015A
:1007C00082E161E00E94540783E161E00E945407E6
:1007D000E9EBF0E080818E7F808380818D7F808354
:1007E00088E48093B80085E48093BC00089581E09C
:1007F0008093D9016093B6011092D7011092D8016D
:1008000008952091B50130E08091B401281B310991
:10081000C90108954091B4018091B501481718F0BD
:100820002FEF3FEF0AC0E42FF0E0EC56FE4F80813F
:10083000282F30E04F5F4093B401C9010895E09143
:10084000B4018091B501E81718F0EFEFFFEF06C093
:10085000F0E0EC56FE4F8081E82FF0E0CF010895E4
:1008600008951092DD011092DC0188EE93E0A0E083
:10087000B0E08093DE019093DF01A093E001B0939C
:10088000E1018AE091E09093DB018093DA01089521
:10089000CF92DF92EF92FF920F931F93CF93DF934C
:1008A0007C016B018A018091D9018823A1F0C0E00D
:1008B000D0E00DC0D701ED91FC91D601AC0FBD1F6A
:1008C0000190F081E02DC7016C9109952196C01728
:1008D000D10780F304C0CB01642F0E942D02C80110
:1008E000DF91CF911F910F91FF90EF90DF90CF900C
:1008F0000895DF93CF930F92CDB7DEB7FC016983E4
:100900008091D9018823C9F08091D801803238F0D4
:1009100081E090E09383828320E030E015C08091F5
:10092000D701E82FF0E0E954FE4F998190838F5F63
:100930008093D7018093D80105C0CE01019661E074
:100940000E942D0221E030E0C9010F90CF91DF918C
:1009500008950F93062F8091B60167EB71E04091E7
:10096000D80121E00E94D8011092D7011092D8013D
:100970001092D9010F910895413208F040E2862F7C
:1009800064E971E00E948F011092B4018093B50177
:1009900008950E94BC0408951092B4011092B5010C
:1009A0001092D7011092D8010E94D90308950F9395
:1009B0001F93DF93CF9300D000D000D0CDB7DEB728
:1009C0008091E6019091E701BE016F5F7F4F0E9429
:1009D000500609E712E069817A81C8014AE050E0D7
:1009E0000E94D50AC8010E94F5096B817C81C8016B
:1009F0004AE050E00E94D50AC8010E94F5096D81C5
:100A00007E81C8014AE050E00E94D50AC8010E94D8
:100A1000F50968EE73E080E090E00E94C00626963B
:100A20000FB6F894DEBF0FBECDBFCF91DF911F91FF
:100A30000F9108950F931F9382E090E00E94C809E0
:100A4000182F092F0E94E9051093E6010093E70192
:100A500089E792E040E855E260E070E00E943208E9
:100A60001F910F910895EF92FF920F931F93FC0136
:100A7000F62EE42E0AED11E060817181C8010E941A
:100A8000F703C8016F2D0E947904C8016E2D0E94E2
:100A90007904C80161E00E94A90481E090E01F91FF
:100AA0000F91FF90EF9008950F931F938C018CE0AE
:100AB00090E0F80191838083C8016AE070E040E033
:100AC00050E00E943305C8016AE070E04FE050E05A
:100AD0000E943305C8016AE070E040E050E00E94E7
:100AE000330588E690E0F80191838083C80164E2D1
:100AF00070E040E450E00E943305C80165E270E018
:100B00004CE850E00E943305C80166E270E042E024
:100B100050E00E943305C80167E270E048E850E009
:100B20000E943305C80168E270E04CE050E00E948A
:100B30003305C80169E270E04AE050E00E943305E5
:100B4000C8016AE270E041E850E00E943305C80144
:100B500064E670E041E050E00E943305C80167E6BA
:100B600070E043E050E00E943305C80161E070E0AE
:100B700040E850E00E943305C80164E370E044E0BF
:100B800050E00E943305C80164E670E040E050E0A8
:100B90000E943305C8016AE670E040E050E00E9420
:100BA0003305C80164E670E041E050E00E9433057F
:100BB000C8016AE670E040E250E00E943305C801D7
:100BC00064E370E043E150E00E9433051F910F9110
:100BD00008950F931F938C0188E690E0F8019183AC
:100BE00080838AED91E00E94CC04C8016BE670E03E
:100BF00040E050E00E943305C8010E9454051F9157
:100C00000F910895CF92DF92EF92FF920F931F936F
:100C10007C01D62EC42E0AED11E0FC0160817181A9
:100C2000C8010E94F703C8016D2D0E947904C80114
:100C300060E00E94A904F70160817181C80141E070
:100C400050E021E030E00E94C904C8010E940A047B
:100C5000D82EF70160817181C8010E94F703C80195
:100C60006C2D0E947904C80160E00E94A904F7017C
:100C700060817181C80141E050E021E030E00E94D4
:100C8000C904C8010E940A04382F20E02D0D311D2F
:100C9000C9011F910F91FF90EF90DF90CF900895C1
:100CA000EF92FF920F931F938C017B016CE370E036
:100CB0004BE350E00E940206F70191838083C80154
:100CC0006EE370E04DE350E00E940206F70193836B
:100CD0008283C80160E470E04FE350E00E940206A6
:100CE000F701958384831F910F91FF90EF900895F2
:100CF0001F920F920FB60F9211242F933F938F9351
:100D00009F93AF93BF938091EC019091ED01A091DF
:100D1000EE01B091EF013091F0010196A11DB11DDE
:100D2000232F2D5F2D3720F02D570196A11DB11DCA
:100D30002093F0018093EC019093ED01A093EE01DC
:100D4000B093EF018091E8019091E901A091EA014F
:100D5000B091EB010196A11DB11D8093E801909324
:100D6000E901A093EA01B093EB01BF91AF919F918C
:100D70008F913F912F910F900FBE0F901F9018955C
:100D80009B01AC017FB7F8948091E8019091E90153
:100D9000A091EA01B091EB0166B5A89B05C06F3F39
:100DA00019F00196A11DB11D7FBFBA2FA92F982F51
:100DB0008827860F911DA11DB11D62E0880F991F24
:100DC000AA1FBB1F6A95D1F7BC012DC0FFB7F894CD
:100DD0008091E8019091E901A091EA01B091EB01C5
:100DE000E6B5A89B05C0EF3F19F00196A11DB11D06
:100DF000FFBFBA2FA92F982F88278E0F911DA11DF5
:100E0000B11DE2E0880F991FAA1FBB1FEA95D1F719
:100E1000861B970B885E9340C8F2215030404040BB
:100E2000504068517C4F211531054105510571F63F
:100E30000895789484B5826084BD84B5816084BD52
:100E400085B5826085BD85B5816085BDEEE6F0E043
:100E5000808181608083E1E8F0E01082808182609F
:100E60008083808181608083E0E8F0E08081816020
:100E70008083E1EBF0E0808184608083E0EBF0E050
:100E8000808181608083EAE7F0E0808184608083F4
:100E9000808182608083808181608083808180689E
:100EA00080831092C1000895482F50E0CA018255F6
:100EB0009F4FFC012491CA0186569F4FFC019491DB
:100EC0004A575F4FFA013491332309F440C022237B
:100ED00051F1233071F0243028F42130A1F0223078
:100EE00011F514C02630B1F02730C1F02430D9F408
:100EF00004C0809180008F7703C0809180008F7D37
:100F00008093800010C084B58F7702C084B58F7D38
:100F100084BD09C08091B0008F7703C08091B0007C
:100F20008F7D8093B000E32FF0E0EE0FFF1FEE58AF
:100F3000FF4FA591B4912FB7F894662321F48C91BB
:100F40009095892302C08C91892B8C932FBF089593
:100F500008951F920F920FB60F9211242F933F9373
:100F60004F938F939F93EF93FF938091C00082FDE7
:100F70001DC04091C60020913102309132022F5F96
:100F80003F4F2F73307080913302909134022817B5
:100F9000390771F0E0913102F0913202EF50FE4FCB
:100FA0004083309332022093310202C08091C60008
:100FB000FF91EF919F918F914F913F912F910F90C2
:100FC0000FBE0F901F901895E0918502F091860258
:100FD000E05CFF4F8191919120813181821B930BC5
:100FE0008F739070892B11F00E94A80708951F92AB
:100FF0000F920FB60F9211242F933F938F939F93CD
:10100000EF93FF93209175023091760280917702E1
:10101000909178022817390731F48091C1008F7DB3
:101020008093C10014C0E0917702F0917802EB5CEC
:10103000FD4F2081809177029091780201968F7305
:10104000907090937802809377022093C600FF916E
:10105000EF919F918F913F912F910F900FBE0F9025
:101060001F901895AF92BF92DF92EF92FF920F936D
:101070001F93CF93DF93EC017A018B01DD24403085
:1010800081EE580780E0680780E0780711F0DD24E2
:10109000D39491E0A92EB12CEC89FD89DD2069F073
:1010A000C50108A002C0880F991F0A94E2F7808347
:1010B00060E079E08DE390E005C0108260E874E8BC
:1010C0008EE190E0A80197010E94070B215030406B
:1010D00040405040569547953795279580E1203000
:1010E000380720F0DD2011F0DD24D6CFE889F9891A
:1010F0003083EA89FB89208319A2EE89FF89408128
:1011000021E030E0C9010C8C02C0880F991F0A94BD
:10111000E2F7482B4083EE89FF894081C9010D8C9D
:1011200002C0880F991F0A94E2F7482B4083EE898A
:10113000FF894081C9010E8C02C0880F991F0A9453
:10114000E2F7482B4083EE89FF8980810F8C02C033
:10115000220F331F0A94E2F7209528232083DF9182
:10116000CF911F910F91FF90EF90DF90BF90AF90C4
:101170000895DC011C96ED91FC911D97E05CFF4FFA
:101180002191319180819181281B390B2F7330700F
:10119000C9010895DC011C96ED91FC911D97E05C5E
:1011A000FF4F20813181E054F040DF01AE5BBF4F43
:1011B0008D919C9111972817390719F42FEF3FEF64
:1011C00007C08D919C91E80FF91F8081282F30E096
:1011D000C9010895DC011C96ED91FC911D97E05C1E
:1011E000FF4F20813181E054F040DF01AE5BBF4F03
:1011F0008D919C9111972817390719F42FEF3FEF24
:1012000010C08D919C911197E80FF91F20818D914D
:101210009C91119701968F73907011969C938E9369
:1012200030E0C9010895DC0191968C919197882353
:1012300039F05496ED91FC915597808186FFF9CF56
:1012400091961C920895CF93DF93EC01EE85FF8574
:10125000E05CFF4F20813181E054F0402F5F3F4F31
:101260002F733070DF01AE5BBF4F8D919C91119752
:1012700028173907D1F3E05CFF4F80819181E0545A
:10128000F040E80FF91F6083EE85FF85E05CFF4FBB
:1012900031832083EE89FF89208181E090E00F8CEB
:1012A00002C0880F991F0A94E2F7282B208381E05F
:1012B00089A3EC89FD8980818064808381E090E04E
:1012C000DF91CF91089510927C0210927B0288EEFC
:1012D00093E0A0E0B0E080937D0290937E02A09323
:1012E0007F02B09380028AE191E090937A0280932A
:1012F000790281EF91E0909386028093850285E3E5
:1013000092E0909388028093870285EC90E090931E
:101310008A028093890284EC90E090938C028093FF
:101320008B0280EC90E090938E0280938D0281EC92
:1013300090E09093900280938F0282EC90E09093E3
:1013400092028093910286EC90E0909394028093B5
:10135000930284E08093950283E08093960287E075
:101360008093970285E08093980281E080939902B0
:101370000895CF93DF930E9419070E941A05C4EEC7
:10138000D7E00E94D7042097E1F30E94E407F9CF49
:101390000E948D000895CF92DF92EF92FF920F93FB
:1013A0001F93CF93DF937C016B018A01C0E0D0E0F3
:1013B0000FC0D6016D916D01D701ED91FC910190A7
:1013C000F081E02DC7010995C80FD91F01501040C9
:1013D0000115110571F7CE01DF91CF911F910F918A
:1013E000FF90EF90DF90CF900895EF92FF920F93D0
:1013F0001F938C01DC01ED91FC910190F081E02DB7
:101400006DE009957C01D801ED91FC910190F0818E
:10141000E02DC8016AE009959C012E0D3F1DC90110
:101420001F910F91FF90EF900895CF93DF93EC0100
:101430006115710519F420E030E00FC0DB010D905B
:101440000020E9F71197A61BB70BE881F98102800C
:10145000F381E02DAD0109959C01C901DF91CF9188
:1014600008954F925F927F928F929F92AF92BF9218
:10147000CF92DF92EF92FF920F931F93DF93CF9360
:10148000CDB7DEB7A1970FB6F894DEBF0FBECDBFC4
:101490002C01742ECB01223008F42AE019A231E28B
:1014A000C32ED12CCC0EDD1E822E9924AA24BB245F
:1014B000672D752FA50194010E94070B79018A0100
:1014C000C801B701A50194010E94E80A472D461BF7
:1014D0000894C108D1084A3014F4405D01C0495C49
:1014E000F6014083E114F1040105110521F07E2C81
:1014F0005F2DC801DDCFC201B6010E94150AA19679
:101500000FB6F894DEBF0FBECDBFCF91DF911F9114
:101510000F91FF90EF90DF90CF90BF90AF909F9092
:101520008F907F905F904F900895CF92DF92EF92CF
:10153000FF920F931F93CF93DF93EC016A017B011E
:101540002115310541F4E881F9810190F081E02D08
:10155000642F09951FC02A303105D1F477FF17C0D9
:10156000E881F9810190F081E02D6DE209958C010F
:1015700044275527BA014C195D096E097F09CE0130
:101580002AE00E94310A9801280F391F04C02AE07E
:101590000E94310A9C01C901DF91CF911F910F91E7
:1015A000FF90EF90DF90CF900895EF92FF920F930E
:1015B0001F937B019A010027F7FC0095102FB801BB
:1015C000A7010E94950A1F910F91FF90EF90089537
:1015D000629FD001739FF001829FE00DF11D649F17
:1015E000E00DF11D929FF00D839FF00D749FF00DA3
:1015F000659FF00D9927729FB00DE11DF91F639F44
:10160000B00DE11DF91FBD01CF0111240895A1E224
:101610001A2EAA1BBB1BFD010DC0AA1FBB1FEE1F6C
:10162000FF1FA217B307E407F50720F0A21BB30BB7
:10163000E40BF50B661F771F881F991F1A9469F733
:1016400060957095809590959B01AC01BD01CF018F
:101650000895EE0FFF1F0590F491E02D0994F89482
:02166000FFCFBA
:1016620020009F02000000000000790448040104E9
:101672000A041F043004000000002309CB09B90842
:06168200EA08CA08130982
:00000001FF
