:100000000C9463000C948B000C948B000C948B006C
:100010000C948B000C948B000C948B000C948B0034
:100020000C948B000C948B000C948B000C948B0024
:100030000C948B000C948B000C948B000C948B0014
:100040000C9499050C948B000C94CA060C94180718
:100050000C948B000C948B000C948B000C948B00F4
:100060000C9446010C948B00000000002400270033
:100070002A0000000000250028002B0000000000DE
:1000800023002600290004040404040404040202DA
:100090000202020203030303030301020408102007
:1000A0004080010204081020010204081020000012
:1000B0000007000201000003040600000000000029
:1000C00000002F03FD0711241FBECFEFD8E0DEBFD5
:1000D000CDBF11E0A0E0B1E0E0ECF9E102C0059095
:1000E0000D92A433B107D9F712E0A4E3B1E001C047
:1000F0001D92A73AB107E1F710E0C6ECD0E004C0CA
:100100002297FE010E94DA0CC23CD107C9F70E9477
:1001100053080C94DE0C0C940000382F413210F080
:1001200040E042C0809134018823E1F791E0909350
:100130003401209336018FEF8093A10110925C016E
:10014000415040935D014F5F90933501809135019F
:10015000330F832B8093350180913701813041F437
:1001600010923701809135018093BB0085EC01C06E
:1001700085EE8093BC00809134018130E1F3809161
:100180005C01841710F440915C0120E030E00AC06B
:10019000FB01E20FF31FD901A45CBE4F8C91808359
:1001A0002F5F3F4F2417A0F3842F08950F931F93C1
:1001B000582F122F413210F081E04AC08091340153
:1001C0008823E1F782E080933401009336018FEFBA
:1001D0008093A10110925C0140935D01ACE3B1E01A
:1001E000FB0102C081918D938E2F861B8417D0F363
:1001F0001092350180913501550F852B8093350183
:1002000080913701813041F410923701809135019E
:100210008093BB0085EC01C085EE8093BC00112368
:1002200021F0809134018230E1F38091A1018F3F70
:1002300011F480E00DC08091A101803211F482E0C0
:1002400007C08091A101803311F084E001C083E0F8
:100250001F910F910895482F613210F081E00895A9
:1002600080913401843011F082E0089560937F0121
:10027000AEE5B1E0842F9C01F90102C081918D931C
:100280008E2F841B8617D0F380E008951F920F9263
:100290000FB60F9211242F933F934F935F936F9359
:1002A0007F938F939F93AF93BF93EF93FF9380912F
:1002B000B90090E0887F90708036910509F4F2C013
:1002C00081369105CCF58832910509F47BC08932DD
:1002D0009105B4F48031910509F46FC08131910525
:1002E0003CF4009709F447C1089709F04FC165C075
:1002F0008831910509F466C0809709F047C182C032
:100300008034910509F4A4C08134910544F480330C
:10031000910509F482C0C89709F038C189C08035B9
:10032000910509F489C08835910509F496C088348F
:10033000910509F02BC1AEC08839910509F413C1AC
:1003400089399105ECF48837910509F4ABC08937F8
:1003500091054CF48836910509F4A4C080379105C5
:1003600009F014C19FC08838910509F4FCC0803998
:10037000910509F49DC08038910509F007C198C026
:10038000803B910509F4C6C0813B91054CF4803A4D
:10039000910509F49FC0883A910509F0F7C0BAC0E9
:1003A000803C910509F4E3C0883C910509F4DFC065
:1003B000883B910509F0EAC0C2C080913501809365
:1003C000BB00CFC090915C0180915D01981768F4EB
:1003D00090915C01E92FF0E0E45CFE4F8081809316
:1003E000BB009F5F90935C01BCC080913601882365
:1003F00009F44BC085ED8093BC008091BC0084FD66
:10040000FCCFC2C080E28093A10185ED8093BC0047
:100410008091BC0084FDFCCFB7C080E38093A10134
:1004200085ED8093BC008091BC0084FDFCCFACC006
:1004300088E38093A1019BC080915C019091BB00F7
:10044000E82FF0E0E45CFE4F90838F5F80935C01C7
:1004500090915C0180915D0182C080915C019091DE
:10046000BB00E82FF0E0E45CFE4F90838F5F809349
:100470005C0180913601882341F085ED8093BC00BA
:100480008091BC0084FDFCCF7FC081E08093370168
:1004900084EA6EC085ED8093BC008091BC0084FD31
:1004A000FCCF72C083E0809334011092A00159C048
:1004B0008091A001803208F056C08091A0019091F7
:1004C000BB00E82FF0E0E058FE4F90838F5F8093F1
:1004D000A00147C08091A001803230F4E091A001DA
:1004E000F0E0E058FE4F108285ED8093BC008091D3
:1004F000BC0084FDFCCF109234016091A001E0911A
:100500003A01F0913B0180E891E070E0099510928A
:10051000A0012DC084E08093340110927E011092DE
:100520007F01E0913801F0913901099580917F01B7
:10053000882329F481E080937F0110925E019091DD
:100540007E01E92FF0E0E25AFE4F80818093BB00EC
:100550009F5F90937E0190917E0180917F0198171B
:1005600010F485EC01C085E88093BC000FC085ECD9
:100570008093BC0009C01092A10185ED8093BC005E
:100580008091BC0084FDFCCF10923401FF91EF916B
:10059000BF91AF919F918F917F916F915F914F919B
:1005A0003F912F910F900FBE0F901F9018951092B2
:1005B000340181E0809336011092370182E161E0DD
:1005C0000E94750683E161E00E947506E9EBF0E0A8
:1005D00080818E7F808380818D7F808388E480937B
:1005E000B80085E48093BC00089581E08093E70122
:1005F0006093C4011092E5011092E60108952091E4
:10060000C30130E08091C201281B3109C90108955E
:100610004091C2018091C301481718F02FEF3FEFBE
:100620000AC0E42FF0E0EE55FE4F8081282F30E025
:100630004F5F4093C201C9010895E091C2018091CA
:10064000C301E81718F0EFEFFFEF06C0F0E0EE553A
:10065000FE4F8081E82FF0E0CF01089508951092B9
:10066000EB011092EA0188EE93E0A0E0B0E0809305
:10067000EC019093ED01A093EE01B093EF0187E1BF
:1006800091E09093E9018093E8010895CF92DF9281
:10069000EF92FF920F931F93CF93DF937C016B0137
:1006A0008A018091E7018823A1F0C0E0D0E00DC06D
:1006B000D701ED91FC91D601AC0FBD1F0190F081E7
:1006C000E02DC7016C9109952196C017D10780F3E1
:1006D00004C0CB01642F0E942B01C801DF91CF9190
:1006E0001F910F91FF90EF90DF90CF900895DF93CF
:1006F000CF930F92CDB7DEB7FC0169838091E701FC
:100700008823C9F08091E601803238F081E090E0E2
:100710009383828320E030E015C08091E501E82FCB
:10072000F0E0EB53FE4F998190838F5F8093E5015A
:100730008093E60105C0CE01019661E00E942B0185
:1007400021E030E0C9010F90CF91DF9108950F9320
:10075000062F8091C40165EC71E04091E60121E033
:100760000E94D6001092E5011092E6011092E70176
:100770000F910895413208F040E2862F62EA71E05D
:100780000E948D001092C2018093C30108950E94BF
:10079000BA0308951092C2011092C3011092E501AC
:1007A0001092E6010E94D7020895EF92FF920F93F4
:1007B0001F93F82EE62E08EE11E060911101709162
:1007C0001201C8010E94F502C8016F2D0E94770333
:1007D000C8016E2D0E947703C80161E00E94A70343
:1007E00081E090E01F910F91FF90EF9008958CE0D1
:1007F00090E090931201809311018AE090E060E014
:1008000070E00E94D5038AE090E06FE070E00E9403
:10081000D5038AE090E060E070E00E94D50388E6AE
:1008200090E0909312018093110184E290E060E4E3
:1008300070E00E94D50385E290E06CE870E00E94D1
:10084000D50386E290E062E070E00E94D50387E283
:1008500090E068E870E00E94D50388E290E06CE0E8
:1008600070E00E94D50389E290E06AE070E00E94A7
:10087000D5038AE290E061E870E00E94D50384E647
:1008800090E061E070E00E94D50387E690E063E0CD
:1008900070E00E94D50381E090E060E870E00E9483
:1008A000D50384E390E064E070E00E94D50384E621
:1008B00090E060E070E00E94D5038AE690E060E09E
:1008C00070E00E94D50384E690E061E070E00E9451
:1008D000D5038AE690E060E270E00E94D50384E3ED
:1008E00090E063E170E00E94D503089588EE91E006
:1008F0000E94CA038BE690E060E070E00E94D5039E
:100900000E94F7030895EF92FF920F931F93F82E22
:10091000E62E08EE11E06091110170911201C801FC
:100920000E94F502C8016F2D0E947703C80160E0A4
:100930000E94A7036091110170911201C80141E06A
:1009400050E021E030E00E94C703C8010E94080384
:10095000F82E6091110170911201C8010E94F502F8
:10096000C8016E2D0E947703C80160E00E94A703B2
:100970006091110170911201C80141E050E021E045
:1009800030E00E94C703C8010E940803382F20E00E
:100990002F0D311DC9011F910F91FF90EF90089508
:1009A000EF92FF920F931F9382E490E061E470E076
:1009B0000E94830405E812E0AA2797FDA095BA2FAC
:1009C000BC01CD010E947C0B20E030EF41E456E4F5
:1009D0000E94790A20E030E04AEA53E40E94E10AEA
:1009E000AB01BC01C80122E030E00E94750A80E042
:1009F000E82E81E0F82EC801B7010E948E098AE432
:100A000090E06BE470E00E948304BC01C8014AE0FE
:100A100050E00E947B09C801B7010E948E098CE456
:100A200090E06DE470E00E948304BC01C8014AE0DC
:100A300050E00E947B09C801B7010E948E098EE434
:100A400090E06FE470E00E948304BC01C8014AE0BA
:100A500050E00E947B09C801B7010E948E0984E41E
:100A600090E063E470E00E948304BC01C8014AE0A6
:100A700050E00E947B09C801B7010E948E0986E4FC
:100A800090E065E470E00E948304BC01C8014AE084
:100A900050E00E947B09C801B7010E948E0988E4DA
:100AA00090E067E470E00E948304BC01C8014AE062
:100AB00050E00E947B09C801B7010E948E098CE3B7
:100AC00090E06BE370E00E948304BC01C8014AE03F
:100AD00050E00E947B09C801B7010E948E098EE395
:100AE00090E06DE370E00E948304BC01C8014AE01D
:100AF00050E00E947B09C801B7010E948E0980E482
:100B000090E06FE370E00E948304BC01C8014AE0FA
:100B100050E00E947B09C8010E948C0864E670E0E6
:100B200080E090E00E94E1051F910F91FF90EF900F
:100B300008951F920F920FB60F9211242F933F9397
:100B40008F939F93AF93BF938091F8019091F90198
:100B5000A091FA01B091FB013091FC010196A11D19
:100B6000B11D232F2D5F2D3720F02D570196A11D8C
:100B7000B11D2093FC018093F8019093F901A0939B
:100B8000FA01B093FB018091F4019091F501A091DD
:100B9000F601B091F7010196A11DB11D8093F401FA
:100BA0009093F501A093F601B093F701BF91AF9137
:100BB0009F918F913F912F910F900FBE0F901F909B
:100BC00018959B01AC017FB7F8948091F401909146
:100BD000F501A091F601B091F70166B5A89B05C09B
:100BE0006F3F19F00196A11DB11D7FBFBA2FA92F2C
:100BF000982F8827860F911DA11DB11D62E0880FD7
:100C0000991FAA1FBB1F6A95D1F7BC012DC0FFB762
:100C1000F8948091F4019091F501A091F601B091C2
:100C2000F701E6B5A89B05C0EF3F19F00196A11D9D
:100C3000B11DFFBFBA2FA92F982F88278E0F911DA6
:100C4000A11DB11DE2E0880F991FAA1FBB1FEA95E5
:100C5000D1F7861B970B885E9340C8F22150304035
:100C60004040504068517C4F2115310541055105E8
:100C700071F60895789484B5826084BD84B58160EE
:100C800084BD85B5826085BD85B5816085BDEEE694
:100C9000F0E0808181608083E1E8F0E01082808173
:100CA00082608083808181608083E0E8F0E08081E1
:100CB00081608083E1EBF0E0808184608083E0EB01
:100CC000F0E0808181608083EAE7F0E080818460E9
:100CD0008083808182608083808181608083808145
:100CE000806880831092C1000895482F50E0CA01A7
:100CF00082559F4FFC012491CA0186569F4FFC01EB
:100D000094914A575F4FFA013491332309F440C05C
:100D1000222351F1233071F0243028F42130A1F046
:100D2000223011F514C02630B1F02730C1F0243044
:100D3000D9F404C0809180008F7703C08091800037
:100D40008F7D8093800010C084B58F7702C084B5FA
:100D50008F7D84BD09C08091B0008F7703C08091E2
:100D6000B0008F7D8093B000E32FF0E0EE0FFF1F07
:100D7000EE58FF4FA591B4912FB7F894662321F454
:100D80008C919095892302C08C91892B8C932FBFD5
:100D9000089508951F920F920FB60F9211242F936A
:100DA0003F934F938F939F93EF93FF938091C00056
:100DB00082FD1DC04091C60020913D0230913E024F
:100DC0002F5F3F4F2F73307080913F029091400210
:100DD0002817390771F0E0913D02F0913E02E3508F
:100DE000FE4F408330933E0220933D0202C080912B
:100DF000C600FF91EF919F918F914F913F912F915D
:100E00000F900FBE0F901F901895E0919102F091F6
:100E10009202E05CFF4F8191919120813181821B90
:100E2000930B8F739070892B11F00E94C90608955F
:100E30001F920F920FB60F9211242F933F938F930F
:100E40009F93EF93FF9320918102309182028091D2
:100E50008302909184022817390731F48091C100F0
:100E60008F7D8093C10014C0E0918302F0918402D1
:100E7000EF5BFD4F20818091830290918402019667
:100E80008F73907090938402809383022093C600A6
:100E9000FF91EF919F918F913F912F910F900FBEF6
:100EA0000F901F901895DC011C96ED91FC911D97F9
:100EB000E05CFF4F2191319180819181281B390B9A
:100EC0002F733070C9010895DC011C96ED91FC91DF
:100ED0001D97E05CFF4F20813181E054F040DF013D
:100EE000AE5BBF4F8D919C9111972817390719F46C
:100EF0002FEF3FEF07C08D919C91E80FF91F808184
:100F0000282F30E0C9010895DC011C96ED91FC9179
:100F10001D97E05CFF4F20813181E054F040DF01FC
:100F2000AE5BBF4F8D919C9111972817390719F42B
:100F30002FEF3FEF10C08D919C911197E80FF91F93
:100F400020818D919C91119701968F7390701196CD
:100F50009C938E9330E0C9010895DC0191968C91A9
:100F60009197882339F05496ED91FC9155978081A3
:100F700086FFF9CF91961C920895CF93DF93EC01F1
:100F8000EE85FF85E05CFF4F20813181E054F04029
:100F90002F5F3F4F2F733070DF01AE5BBF4F8D91DE
:100FA0009C91119728173907D1F3E05CFF4F80819E
:100FB0009181E054F040E80FF91F6083EE85FF85D2
:100FC000E05CFF4F31832083EE89FF89208181E03F
:100FD00090E00F8C02C0880F991F0A94E2F7282B2B
:100FE000208381E089A3EC89FD89808180648083EE
:100FF00081E090E0DF91CF910895109288021092E5
:10100000870288EE93E0A0E0B0E08093890290939D
:101010008A02A0938B02B0938C0287E291E09093B6
:101020008602809385028DEF91E0909392028093E7
:10103000910281E492E0909394028093930285EC74
:1010400090E0909396028093950284EC90E09093C8
:1010500098028093970280EC90E090939A0280939C
:10106000990281EC90E090939C0280939B0282EC29
:1010700090E090939E0280939D0286EC90E0909386
:10108000A00280939F0284E08093A10283E080937A
:10109000A20287E08093A30285E08093A40281E00E
:1010A0008093A5020895CF93DF930E943A060E9491
:1010B0007604C5E0D7E00E94D0042097E1F30E94B7
:1010C0000507F9CFCF92DF92EF92FF920F931F9314
:1010D000CF93DF937C016B018A01C0E0D0E00FC0A9
:1010E000D6016D916D01D701ED91FC910190F081D8
:1010F000E02DC7010995C80FD91F015010400115F7
:10110000110571F7CE01DF91CF911F910F91FF90E3
:10111000EF90DF90CF900895EF92FF920F931F937F
:101120008C01DC01ED91FC910190F081E02D6DE0EE
:1011300009957C01D801ED91FC910190F081E02DA1
:10114000C8016AE009959C012E0D3F1DC9011F9140
:101150000F91FF90EF900895CF93DF93EC0161150D
:10116000710519F420E030E00FC0DB010D90002084
:10117000E9F71197A61BB70BE881F9810280F3818B
:10118000E02DAD0109959C01C901DF91CF91089532
:101190004F925F927F928F929F92AF92BF92CF9227
:1011A000DF92EF92FF920F931F93DF93CF93CDB710
:1011B000DEB7A1970FB6F894DEBF0FBECDBF2C01EE
:1011C000742ECB01223008F42AE019A231E2C32E9A
:1011D000D12CCC0EDD1E822E9924AA24BB24672D8F
:1011E000752FA50194010E94B60C79018A01C801EE
:1011F000B701A50194010E94970C472D461B089446
:10120000C108D1084A3014F4405D01C0495CF601C0
:101210004083E114F1040105110521F07E2C5F2DBE
:10122000C801DDCFC201B6010E94AC08A1960FB67D
:10123000F894DEBF0FBECDBFCF91DF911F910F910C
:10124000FF90EF90DF90CF90BF90AF909F908F90E6
:101250007F905F904F900895DC012115310541F496
:10126000ED91FC910190F081E02D642F0995089596
:101270000E94C8080895CF92DF92EF92FF920F93D9
:101280001F93CF93DF93EC016A017B012115310598
:1012900041F4E881F9810190F081E02D642F0995F6
:1012A0001FC02A303105D1F477FF17C0E881F981DA
:1012B0000190F081E02D6DE209958C0144275527BE
:1012C000BA014C195D096E097F09CE012AE00E941E
:1012D000C8089801280F391F04C02AE00E94C808D6
:1012E0009C01C901DF91CF911F910F91FF90EF9069
:1012F000DF90CF900895EF92FF920F931F937B01A1
:101300009A010027F7FC0095102FB801A7010E9451
:101310003B091F910F91FF90EF9008950E94AC0838
:1013200008957F928F929F92AF92BF92CF92DF9259
:10133000EF92FF920F931F93CF93DF934C017A01AB
:101340008B01722ECB01BA01A80197010E94930C68
:10135000882321F0C40163E071E021C0C0E0D0E047
:1013600057016801E894D7F8C601B5012FEF3FEFA8
:101370004FE75FE70E94930C882351F4C601B50143
:101380002FEF3FEF4FE75FE70E94DD0A181614F0DA
:10139000C1E0D0E0219739F0C40167E071E00E941C
:1013A000AC08EC0193C0C801B7012FEF3FEF4FE746
:1013B0005FE40E942C0C181654F0C801B7012FEFFF
:1013C0003FEF4FE75FEC0E94DD0A882324F4C4015D
:1013D0006BE071E0E4CFC801B70120E030E040E00D
:1013E00050E00E94DD0A87FD03C0C0E0D0E00EC0DF
:1013F000D401ED91FC910190F081E02DC4016DE2EA
:101400000995EC0117FB109517F9109520E030E0D5
:1014100040E05FE3DD240BC0CA01B90120E030E009
:1014200040E251E40E94E10A9B01AC01D394D7143D
:1014300098F3C801B7010E94790A5B016C010E9410
:101440004E0B7B018C01C401B801A7012AE030E0FA
:101450000E942C09C80FD91F772039F0C4016FE012
:1014600071E00E94AC08C80FD91FC801B7010E94E3
:101470007A0B9B01AC01C601B5010E94780A24C019
:1014800020E030E040E251E40E94300C7B018C010E
:101490000E94490B5B016C01CC24B7FCC094DC2C8E
:1014A000C401B601A5012AE030E00E943B09C80F43
:1014B000D91FC601B5010E947C0B9B01AC01C8017C
:1014C000B7010E94780A7A947720D1F6CE01DF9195
:1014D000CF911F910F91FF90EF90DF90CF90BF9031
:1014E000AF909F908F907F9008950E9491090895EA
:1014F0005058BB27AA270ED075C166D130F06BD1EA
:1015000020F031F49F3F11F41EF45BC10EF4E0951E
:10151000E7FB51C1E92F77D180F3BA176207730750
:101520008407950718F071F49EF58FC10EF4E095CD
:101530000B2EBA2FA02D0B01B90190010C01CA018D
:10154000A0011124FF27591B99F0593F50F4503E38
:1015500068F11A16F040A22F232F342F4427585F2A
:10156000F3CF469537952795A795F0405395C9F742
:101570007EF41F16BA0B620B730B840BBAF09150FA
:10158000A1F0FF0FBB1F661F771F881FC2F70EC099
:10159000BA0F621F731F841F48F48795779567956C
:1015A000B795F7959E3F08F0B3CF9395880F08F055
:1015B0009927EE0F979587950895D9D008F481E083
:1015C00008950CD00FC107D140F0FED030F021F4C7
:1015D0005F3F19F0F0C0511139C1F3C014D198F335
:1015E0009923C9F35523B1F3951B550BBB27AA27A4
:1015F00062177307840738F09F5F5F4F220F331F16
:10160000441FAA1FA9F333D00E2E3AF0E0E830D0E1
:1016100091505040E695001CCAF729D0FE2F27D0E4
:10162000660F771F881FBB1F261737074807AB07B2
:10163000B0E809F0BB0B802DBF01FF2793585F4F27
:101640002AF09E3F510568F0B6C000C15F3FECF341
:10165000983EDCF3869577956795B795F7959F5FEC
:10166000C9F7880F911D9695879597F90895E1E040
:10167000660F771F881FBB1F621773078407BA079F
:1016800020F0621B730B840BBA0BEE1F88F7E095FA
:10169000089504D06894B111D9C00895BCD088F0E1
:1016A0009F5790F0B92F9927B751A0F0D1F0660F4E
:1016B000771F881F991F1AF0BA95C9F712C0B13069
:1016C00081F0C3D0B1E00895C0C0672F782F88277C
:1016D000B85F39F0B93FCCF3869577956795B395A8
:1016E000D9F73EF490958095709561957F4F8F4F17
:1016F0009F4F0895E89409C097FB3EF4909580951C
:10170000709561957F4F8F4F9F4F9923A9F0F92FC7
:1017100096E9BB279395F695879577956795B79545
:10172000F111F8CFFAF4BB0F11F460FF1BC06F5F2B
:101730007F4F8F4F9F4F16C0882311F096E911C03D
:10174000772321F09EE8872F762F05C0662371F05E
:1017500096E8862F70E060E02AF09A95660F771F72
:10176000881FDAF7880F9695879597F90895990F4E
:101770000008550FAA0BE0E8FEEF16161706E8075B
:10178000F907C0F012161306E407F50798F0621B7C
:10179000730B840B950B39F40A2661F0232B242B51
:1017A000252B21F408950A2609F4A140A6958FEF70
:1017B000811D811D089597F99F6780E870E060E0C2
:1017C00008959FEF80EC089500240A9416161706DA
:1017D00018060906089500240A9412161306140622
:1017E00005060895092E0394000C11F4882352F085
:1017F000BB0F40F4BF2B11F460FF04C06F5F7F4F3D
:101800008F4F9F4F089557FD9058440F551F59F023
:101810005F3F71F04795880F97FB991F61F09F3FDD
:1018200079F087950895121613061406551FF2CF06
:101830004695F1DF08C0161617061806991FF1CF56
:1018400086957105610508940895E894BB2766277D
:101850007727CB0197F908958ADF08F48FEF089571
:101860000BD0C0CFB1DF28F0B6DF18F0952309F018
:10187000A2CFA7CF1124EACFC6DFA0F3959FD1F363
:10188000950F50E0551F629FF001729FBB27F00D2E
:10189000B11D639FAA27F00DB11DAA1F649F662783
:1018A000B00DA11D661F829F2227B00DA11D621FD2
:1018B000739FB00DA11D621F839FA00D611D221F8C
:1018C000749F3327A00D611D231F849F600D211D70
:1018D000822F762F6A2F11249F5750408AF0E1F013
:1018E00088234AF0EE0FFF1FBB1F661F771F881F5C
:1018F00091505040A9F79E3F510570F05CCFA6CFA4
:101900005F3FECF3983EDCF3869577956795B79546
:10191000F795E7959F5FC1F7FE2B880F911D969570
:10192000879597F9089523DF880B990B0895629F97
:10193000D001739FF001829FE00DF11D649FE00DC7
:10194000F11D929FF00D839FF00D749FF00D659F28
:10195000F00D9927729FB00DE11DF91F639FB00D27
:10196000E11DF91FBD01CF0111240895A1E21A2E36
:10197000AA1BBB1BFD010DC0AA1FBB1FEE1FFF1F33
:10198000A217B307E407F50720F0A21BB30BE40B83
:10199000F50B661F771F881F991F1A9469F76095CA
:1019A0007095809590959B01AC01BD01CF01089584
:1019B000EE0FFF1F0590F491E02D0994F894FFCFEE
:1019C0002020006E616E00696E66006F7666002EE4
:1019D0000068000000000077034603FF0208031DB3
:1019E000032E0300000000BD07620853078407644C
:0419F00007AD070038
:00000001FF
